:100000000C9472000C94AB000C94AB000C94AB00FD
:100010000C94AB000C94AB000C94AB000C94AB00B4
:100020000C94AB000C94AB000C94AB000C94AB00A4
:100030000C94AB000C94AB000C94AB000C94AB0094
:100040000C94AB000C94AB000C94AB000C94AB0084
:100050000C94AB000C94AB000C94AB000C94AB0074
:100060000C94AB000C94AB000C94AB000C94AB0064
:100070000C94AB000C94AB000C94AB000C94AB0054
:100080000C94AB000C94AB000C94AB000C94AB0044
:100090000C94AB000C94AB000C94AB000C94AB0034
:1000A0000C94AB000C94AB000C94AB000C94AB0024
:1000B0000C94AB000C94AB000C94AB000C94AB0014
:1000C0000C94AB000C94AB000C94AB000C94AB0004
:1000D0000C94AB000C94AB000C94AB000C94AB00F4
:1000E0000C94AB0011241FBECFEFD1E2DEBFCDBF19
:1000F00000E00CBF0E9480000C94A000F894FFCF99
:1001000080E184B980E685B98FE99FE00197F1F736
:1001100000C0000083B193B186FB222720F995FB34
:10012000882780F9822B8295807F85B99FEF29E609
:1001300088E1915020408040E1F700C00000EACF04
:10014000EC010E94B0000E94AF00CE010E94B100FD
:06015000CE010E94AD008B
:040156000C94000005
:04015A000E947E0081
:02015E00089502
:02016000089500
:020162000895FE
:00000001FF
